1010793118000178123456        T2Ti                               BRASILIA                      DF61304252772010100120101030131
11AGUAS CLARAS                      00000                      AGUAS CLARAS-DF71000000ALBERT EIJE                 006130425277
60M20100928999999999           0012D00010700012000000901600000000000500000000000000090500                                     
60M20100928999999999           0012D00010700012000000901600000000000500000000000000090500                                     
60M20100929999999999           0012D00012200012100001001600000000000000000000000000090500                                     
60M20101002000000000000000000010012D00035700035600001600400000000000000000000000012814201                                     
60M20101004000000000000000000010012D00036000035900001700400000000000000000000000012818461                                     
60M36101027EPMM04000000000000010012D00006700007300000500100000000000000000000000000047430                                     
60M36101028000000000000000000010012D00000800002600000000200000000001005700000000000100570                                     
60M36101028000000000000000000010012D00000800002600000000200000000001005700000000000100570                                     
60M36101029000000000000000000010012D00002800002700000100200000000000000000000000000100570                                     
60M36101030000000000000000000010012D00005000004900000200200000000000000000000000000312560                                     
60M36101030EMULADOR            0012D00000500000600000100100000000000000000000000000000100                                     
60M36101030999999999           0012D00016500016400001201600000000000000000000000000671191                                     
60A20101001999999999           7   000000000000                                                                               
60A20101001999999999           12  000000000000                                                                               
60A20101001999999999           17  000000012500                                                                               
60A20101001999999999           25  000000000000                                                                               
60A20101001999999999           8   000000000000                                                                               
60A20101001999999999           13  000000000000                                                                               
60A20101001999999999           18  000000000000                                                                               
60A20101001999999999           26  000000000000                                                                               
60A20101001999999999           545 000000000000                                                                               
60A20101001999999999           1087000000000000                                                                               
60A20101001999999999           7   000000000000                                                                               
60A20101001999999999           12  000000000000                                                                               
60A20101001999999999           17  000000012500                                                                               
60A20101001999999999           25  000000000000                                                                               
60A20101001999999999           8   000000000000                                                                               
60A20101001999999999           13  000000000000                                                                               
60A20101001999999999           18  000000000000                                                                               
60A20101001999999999           26  000000000000                                                                               
60A20101001999999999           545 000000000000                                                                               
60A20101001999999999           1087000000000000                                                                               
60A20101001999999999           7   000000000000                                                                               
60A20101001999999999           12  000000000000                                                                               
60A20101001999999999           17  000000000000                                                                               
60A20101001999999999           25  000000000000                                                                               
60A20101001999999999           8   000000000000                                                                               
60A20101001999999999           13  000000000000                                                                               
60A20101001999999999           18  000000000000                                                                               
60A20101001999999999           26  000000000000                                                                               
60A20101001999999999           545 000000000000                                                                               
60A20101001999999999           1087000000000000                                                                               
60A201010010000000000000000000117  000000000000                                                                               
60A20101001000000000000000000015   000000000000                                                                               
60A20101001000000000000000000017   000000000000                                                                               
60A201010010000000000000000000110  000000000000                                                                               
60A201010010000000000000000000112  000000000000                                                                               
60A201010010000000000000000000117  000000000000                                                                               
60A20101001000000000000000000015   000000000000                                                                               
60A20101001000000000000000000017   000000000000                                                                               
60A201010010000000000000000000110  000000000000                                                                               
60A201010010000000000000000000112  000000000000                                                                               
60D20101001999999999           2608021532487 000000000100000000000000000000000000000000000    0000000000000                   
60D20101001999999999           2608021532487 000000000600000000000000000000000000000000000    0000000000000                   
60D20101001999999999           0312011604499 000000000100000000000000000000000000000000000    0000000000000                   
60D20101001999999999           0001170000005 000000000500000000000000000000000000000000000    0000000000000                   
60D20101001999999999           0001170000005 000000000100000000000000000000000000000000000    0000000000000                   
60D20101001999999999           0001170000005 000000000100000000000000000000000000000000000    0000000000000                   
60D20101001999999999           0013253095907 000000000100000000000000000000000000000000000    0000000000000                   
60D20101001999999999           3011010827133 000000000100000000000000000000000000000000000    0000000000000                   
60D20101001999999999           0312011604499 000000000100000000000000000000000000000000000    0000000000000                   
60D20101001999999999           0001170000005 000000000100000000000000000000000000000000000    0000000000000                   
60D20101001999999999           0001170000005 000000000100000000000000000000000000000000000    0000000000000                   
60D20101001999999999           0312011604499 000000000100000000000000000000000000000000000    0000000000000                   
60D20101001999999999           3011010827133 000000000100000000000000000000000000000000000    0000000000000                   
60D20101001999999999           0001170000005 000000000100000000000000000000000000000000000    0000000000000                   
60D20101001999999999           0001234567898 000000000100000000000000000000000000000000000    0000000000000                   
60D20101001999999999           0407011150500 000000000100000000000000000000000000000000000    0000000000000                   
60D20101001999999999           1603041234428 000000000100000000000000000000000000000000000    0000000000000                   
60D20101001999999999           0507021132142 000000000100000000000000000000000000000000000    0000000000000                   
60D20101001999999999           2509021501148 000000000100000000000000000000000000000000000    0000000000000                   
60D20101001999999999           2608021532487 000000000100000000000000000000000000000000000    0000000000000                   
60D20101001999999999           2106021651318 000000000100000000000000000000000000000000000    0000000000000                   
60D20101001999999999           0605021008457 000000000100000000000000000000000000000000000    0000000000000                   
60D20101001999999999           2608021837544 000000000100000000000000000000000000000000000    0000000000000                   
60D20101001999999999           7896572014056 000000000100000000000000000000000000000000000    0000000000000                   
60D20101001999999999           0012354600333 000000000100000000000000000000000000000000000    0000000000000                   
60D20101001999999999           0706031233270 000000000100000000000000000000000000000000000    0000000000000                   
60D20101001999999999           0013253095907 000000000100000000000000000000000000000000000    0000000000000                   
60D20101001999999999           0013253095907 000000000100000000000000000000000000000000000    0000000000000                   
60D20101001999999999           2106021651318 000000000100000000000000000000000000000000000    0000000000000                   
60D20101001999999999           3011010827133 000000000500000000000000000000000000000000000    0000000000000                   
60D20101001999999999           3011010827133 000000000100000000000000000000000000000000000    0000000000000                   
60D20101001999999999           0312011604499 000000000700000000000000000000000000000000000    0000000000000                   
60D20101001999999999           0001234567898 000000000100000000000000000000000000000000000    0000000000000                   
60D20101001999999999           0507021132142 000000000800000000000000000000000000000000000    0000000000000                   
60D20101001999999999           0507021132142 000000000100000000000000000000000000000000000    0000000000000                   
60D20101001999999999           2106021651318 000000000700000000000000000000000000000000000    0000000000000                   
60D20101001999999999           2608021837544 000000000100000000000000000000000000000000000    0000000000000                   
60D20101001999999999           0605021008457 000000000100000000000000000000000000000000000    0000000000000                   
60D20101001999999999           0312011604499 000000000100000000000000000000000000000000000    0000000000000                   
60D20101001999999999           0001170000005 000000000100000000000000000000000000000000000    0000000000000                   
60D20101001999999999           0001180000002 000000000100000000000000000000000000000000000    0000000000000                   
60D20101001999999999           0001190000009 000000000100000000000000000000000000000000000    0000000000000                   
60D20101001999999999           0407011150500 000000000500000000000000000000000000000000000    0000000000000                   
60D20101001999999999           0312011604499 000000000100000000000000000000000000000000000    0000000000000                   
60D20101001999999999           0312011604499 000000000100000000000000000000000000000000000    0000000000000                   
60D20101001999999999           0312011604499 000000000100000000000000000000000000000000000    0000000000000                   
60D20101001999999999           0312011604499 000000000100000000000000000000000000000000000    0000000000000                   
60D20101001999999999           0312011604499 000000000100000000000000000000000000000000000    0000000000000                   
60D20101001999999999           0312011604499 000000000100000000000000000000000000000000000    0000000000000                   
60D20101001999999999           0312011604499 000000000100000000000000000000000000000000000    0000000000000                   
60D20101001999999999           0312011604499 000000000100000000000000000000000000000000000    0000000000000                   
60D20101001999999999           0312011604499 000000000100000000000000000000000000000000000    0000000000000                   
60D20101001999999999           0312011604499 000000000100000000000000000000000000000000000    0000000000000                   
60D20101001999999999           0312011604499 000000000100000000000000000000000000000000000    0000000000000                   
60D20101001999999999           0312011604499 000000000100000000000000000000000000000000000    0000000000000                   
60D20101001999999999           0312011604499 000000000100000000000000000000000000000000000    0000000000000                   
60D20101001999999999           0312011604499 000000000100000000000000000000000000000000000    0000000000000                   
60D20101001999999999           0312011604499 000000000100000000000000000000000000000000000    0000000000000                   
60D20101001999999999           0312011604499 000000000100000000000000000000000000000000000    0000000000000                   
60D20101001999999999           0312011604499 000000000100000000000000000000000000000000000    0000000000000                   
60D20101001999999999           0312011604499 000000000100000000000000000000000000000000000    0000000000000                   
60D20101001999999999           0312011604499 000000000100000000000000000000000000000000000    0000000000000                   
60D20101001999999999           0312011604499 000000000100000000000000000000000000000000000    0000000000000                   
60D20101001999999999           0312011604499 000000000100000000000000000000000000000000000    0000000000000                   
60D20101001999999999           0312011604499 000000000100000000000000000000000000000000000    0000000000000                   
60D20101001999999999           0312011604499 000000000100000000000000000000000000000000000    0000000000000                   
60D20101001999999999           0312011604499 000000000100000000000000000000000000000000000    0000000000000                   
60D20101001999999999           3011010827133 000000000100000000000000000000000000000000000    0000000000000                   
60D20101001999999999           0312011604499 000000000100000000000000000000000000000000000    0000000000000                   
60D20101001999999999           0001170000005 000000000100000000000000000000000000000000000    0000000000000                   
60D20101001999999999           0001170000005 000000000100000000000000000000000000000000000    0000000000000                   
60D20101001999999999           0001180000002 000000000400000000000000000000000000000000000    0000000000000                   
60D20101001999999999           0407011150500 000000000100000000000000000000000000000000000    0000000000000                   
60D20101001999999999           3011010827133 000000000100000000000000000000000000000000000    0000000000000                   
60D20101001999999999           0312011604499 000000000700000000000000000000000000000000000    0000000000000                   
60D20101001999999999           1111111111800 000000000100000000000000000000000000000000000    0000000000000                   
60D20101001999999999           9024143000001 000000000100000000000000000000000000000000000    0000000000000                   
60D20101001999999999           4545454899993 000000000100000000000000000000000000000000000    0000000000000                   
60D20101001999999999           0201011812198 000000000100000000000000000000000000000000000    0000000000000                   
60D20101001999999999           1105001755191 000000000100000000000000000000000000000000000    0000000000000                   
60D20101001999999999           0811021624478 000000000100000000000000000000000000000000000    0000000000000                   
60D20101001999999999           2010000851593 000000000100000000000000000000000000000000000    0000000000000                   
60D20101001999999999           0312011604499 000000000100000000000000000000000000000000000    0000000000000                   
60D20101001999999999           0312011604499 000000000100000000000000000000000000000000000    0000000000000                   
60D20101001999999999           0312011604499 000000000100000000000000000000000000000000000    0000000000000                   
60D20101001999999999           0312011604499 000000000100000000000000000000000000000000000    0000000000000                   
60D20101001999999999           0312011604499 000000000100000000000000000000000000000000000    0000000000000                   
60D20101001999999999           0312011604499 000000000100000000000000000000000000000000000    0000000000000                   
60D20101001999999999           0312011604499 000000000100000000000000000000000000000000000    0000000000000                   
60D20101001999999999           0312011604499 000000000100000000000000000000000000000000000    0000000000000                   
60D20101001999999999           0312011604499 000000000100000000000000000000000000000000000    0000000000000                   
60D20101001999999999           0312011604499 000000000100000000000000000000000000000000000    0000000000000                   
60D20101001999999999           0312011604499 000000000100000000000000000000000000000000000    0000000000000                   
60D20101001999999999           0312011604499 000000000100000000000000000000000000000000000    0000000000000                   
60D20101001999999999           0312011604499 000000000100000000000000000000000000000000000    0000000000000                   
60D20101001999999999           0312011604499 000000000100000000000000000000000000000000000    0000000000000                   
60D20101001999999999           0312011604499 000000000100000000000000000000000000000000000    0000000000000                   
60D20101001999999999           0312011604499 000000000100000000000000000000000000000000000    0000000000000                   
60D20101001999999999           0312011604499 000000000100000000000000000000000000000000000    0000000000000                   
60D20101001999999999           0312011604499 000000000100000000000000000000000000000000000    0000000000000                   
60D20101001999999999           0312011604499 000000000100000000000000000000000000000000000    0000000000000                   
60D20101001999999999           0312011604499 000000000400000000000000000000000000000000000    0000000000000                   
60D20101001999999999           0312011604499 000000000100000000000000000000000000000000000    0000000000000                   
60D20101001999999999           0312011604499 000000000100000000000000000000000000000000000    0000000000000                   
60D20101001999999999           0312011604499 000000000100000000000000000000000000000000000    0000000000000                   
60D20101001999999999           0312011604499 000000000100000000000000000000000000000000000    0000000000000                   
60D20101001999999999           0312011604499 000000000100000000000000000000000000000000000    0000000000000                   
60D20101001999999999           0312011604499 000000000800000000000000000000000000000000000    0000000000000                   
60D20101001999999999           0312011604499 000000000100000000000000000000000000000000000    0000000000000                   
60D20101001999999999           0312011604499 000000000100000000000000000000000000000000000    0000000000000                   
60D20101001999999999           0312011604499 000000000100000000000000000000000000000000000    0000000000000                   
60D20101001999999999           0312011604499 000000000100000000000000000000000000000000000    0000000000000                   
60D20101001999999999           0312011604499 000000000100000000000000000000000000000000000    0000000000000                   
60D20101001999999999           0312011604499 000312011600000000000000000000000000000000000    0000000000000                   
60D20101001999999999           0312011604499 000000000100000000000000000000000000000000000    0000000000000                   
60D20101001999999999           0312011604499 000000000100000000000000000000000000000000000    0000000000000                   
60D20101001999999999           2106021651318 000000000100000000000000000000000000000000000    0000000000000                   
60D20101001999999999           0605021008457 000000000100000000000000000000000000000000000    0000000000000                   
60D20101001999999999           2608021837544 000000000100000000000000000000000000000000000    0000000000000                   
60D20101001999999999           3011010827133 000000000100000000000000000000000000000000000    0000000000000                   
60D20101001999999999           0312011604499 000000000100000000000000000000000000000000000    0000000000000                   
60D20101001999999999           0001170000005 000000000100000000000000000000000000000000000    0000000000000                   
60D20101001999999999           0001180000002 000000000100000000000000000000000000000000000    0000000000000                   
60D20101001999999999           0001190000009 000000009000000000000000000000000000000000000    0000000000000                   
60D20101001999999999           3011010827133 000000000100000000000000000000000000000000000    0000000000000                   
60D20101001999999999           0312011604499 000000000100000000000000000000000000000000000    0000000000000                   
60D20101001999999999           3011010827133 000000000100000000000000000000000000000000000    0000000000000                   
60D20101001999999999           3011010827133 000000000100000000000000000000000000000000000    0000000000000                   
60D20101001999999999           3011010827133 000000000100000000000000000000000000000000000    0000000000000                   
60D20101001999999999           0312011604499 000000000100000000000000000000000000000000000    0000000000000                   
60D20101001999999999           0312011604499 000000000100000000000000000000000000000000000    0000000000000                   
60D20101001999999999           0001170000005 000000000100000000000000000000000000000000000    0000000000000                   
60D20101001999999999           0001170000005 000000000100000000000000000000000000000000000    0000000000000                   
60D20101001999999999           0001190000009 000000000100000000000000000000000000000000000    0000000000000                   
60D20101001999999999           0001234567898 000000000100000000000000000000000000000000000    0000000000000                   
60D20101001999999999           0507021132142 000000000100000000000000000000000000000000000    0000000000000                   
60D20101001999999999           0507021132142 000000000100000000000000000000000000000000000    0000000000000                   
60D20101001999999999           0507021132142 000000000100000000000000000000000000000000000    0000000000000                   
60D20101001999999999           0507021132142 000000000100000000000000000000000000000000000    0000000000000                   
60D20101001999999999           0507021132142 000000000100000000000000000000000000000000000    0000000000000                   
60D20101001999999999           0507021132142 000000000100000000000000000000000000000000000    0000000000000                   
60D20101001999999999           0507021132142 000000000100000000000000000000000000000000000    0000000000000                   
60D20101001999999999           0507021132142 000000000100000000000000000000000000000000000    0000000000000                   
60D20101001999999999           0507021132142 000000000100000000000000000000000000000000000    0000000000000                   
60D20101001999999999           0507021132142 000000000100000000000000000000000000000000000    0000000000000                   
60D20101001999999999           0507021132142 000000000100000000000000000000000000000000000    0000000000000                   
60D20101001999999999           0507021132142 000000000100000000000000000000000000000000000    0000000000000                   
60D20101001999999999           0507021132142 000000000100000000000000000000000000000000000    0000000000000                   
60D20101001999999999           0507021132142 000000000100000000000000000000000000000000000    0000000000000                   
60D20101001999999999           0507021132142 000000000100000000000000000000000000000000000    0000000000000                   
60D20101001999999999           0507021132142 000000000100000000000000000000000000000000000    0000000000000                   
60D20101001999999999           0507021132142 000000000100000000000000000000000000000000000    0000000000000                   
60D20101001999999999           0507021132142 000000000100000000000000000000000000000000000    0000000000000                   
60D20101001999999999           0507021132142 000000000100000000000000000000000000000000000    0000000000000                   
60D20101001999999999           0507021132142 000000000100000000000000000000000000000000000    0000000000000                   
60D20101001999999999           0507021132142 000000000100000000000000000000000000000000000    0000000000000                   
60D20101001999999999           0507021132142 000000000100000000000000000000000000000000000    0000000000000                   
60D20101001999999999           0507021132142 000000000100000000000000000000000000000000000    0000000000000                   
60D20101001999999999           0507021132142 000000000100000000000000000000000000000000000    0000000000000                   
60D20101001999999999           0507021132142 000000000100000000000000000000000000000000000    0000000000000                   
60D20101001999999999           0507021132142 000000000100000000000000000000000000000000000    0000000000000                   
60D20101001999999999           0507021132142 000000000100000000000000000000000000000000000    0000000000000                   
60D20101001999999999           0507021132142 000000000100000000000000000000000000000000000    0000000000000                   
60D20101001999999999           0507021132142 000000000100000000000000000000000000000000000    0000000000000                   
60D20101001999999999           0507021132142 000000000100000000000000000000000000000000000    0000000000000                   
60D20101001999999999           0507021132142 000000000100000000000000000000000000000000000    0000000000000                   
60D20101001999999999           0507021132142 000000000100000000000000000000000000000000000    0000000000000                   
60D20101001999999999           2509021501148 000000000100000000000000000000000000000000000    0000000000000                   
60D20101001999999999           2608021532487 000000000100000000000000000000000000000000000    0000000000000                   
60D20101001999999999           2106021651318 000000000100000000000000000000000000000000000    0000000000000                   
60D20101001999999999           0605021008457 000000000100000000000000000000000000000000000    0000000000000                   
60D20101001999999999           0605021008457 000000000100000000000000000000000000000000000    0000000000000                   
60D20101001999999999           0605021008457 000000000100000000000000000000000000000000000    0000000000000                   
60D20101001999999999           2608021532487 000000000100000000000000000000000000000000000    0000000000000                   
60D20101001999999999           2509021501148 000000000100000000000000000000000000000000000    0000000000000                   
60D20101001999999999           0507021132142 000000000100000000000000000000000000000000000    0000000000000                   
60D20101001999999999           1603041234428 000000000100000000000000000000000000000000000    0000000000000                   
60D20101001999999999           1603041234428 000000000100000000000000000000000000000000000    0000000000000                   
60D20101001999999999           0507021132142 000000000100000000000000000000000000000000000    0000000000000                   
60D20101001999999999           2509021501148 000000000100000000000000000000000000000000000    0000000000000                   
60D20101001999999999           2608021532487 000000000100000000000000000000000000000000000    0000000000000                   
60D20101001999999999           2608021532487 000000000100000000000000000000000000000000000    0000000000000                   
60D20101001999999999           2509021501148 000000000100000000000000000000000000000000000    0000000000000                   
60D20101001999999999           0507021132142 000000000100000000000000000000000000000000000    0000000000000                   
60D20101001999999999           1603041234428 000000000100000000000000000000000000000000000    0000000000000                   
60D20101001999999999           0407011150500 000000000100000000000000000000000000000000000    0000000000000                   
60D20101001999999999           0407011150500 000000000100000000000000000000000000000000000    0000000000000                   
60D20101001999999999           1603041234428 000000000100000000000000000000000000000000000    0000000000000                   
60D20101001999999999           0507021132142 000000000100000000000000000000000000000000000    0000000000000                   
60D20101001999999999           2509021501148 000000000100000000000000000000000000000000000    0000000000000                   
60D20101001999999999           2608021532487 000000000100000000000000000000000000000000000    0000000000000                   
60D20101001999999999           2608021532487 000000000100000000000000000000000000000000000    0000000000000                   
60D20101001999999999           2106021651318 000000000100000000000000000000000000000000000    0000000000000                   
60D20101001999999999           0605021008457 000000000100000000000000000000000000000000000    0000000000000                   
60D20101001999999999           0605021008457 000000000100000000000000000000000000000000000    0000000000000                   
60D20101001999999999           2106021651318 000000000100000000000000000000000000000000000    0000000000000                   
60D20101001999999999           2608021532487 000000000100000000000000000000000000000000000    0000000000000                   
60D20101001999999999           2608021532487 000000000100000000000000000000000000000000000    0000000000000                   
60D20101001999999999           2509021501148 000000000100000000000000000000000000000000000    0000000000000                   
60D20101001999999999           0507021132142 000000000100000000000000000000000000000000000    0000000000000                   
60D20101001999999999           1603041234428 000000000100000000000000000000000000000000000    0000000000000                   
60D20101001999999999           1603041234428 000000000100000000000000000000000000000000000    0000000000000                   
60D20101001999999999           0507021132142 000000000100000000000000000000000000000000000    0000000000000                   
60D20101001999999999           2509021501148 000000000100000000000000000000000000000000000    0000000000000                   
60D20101001999999999           2509021501148 000000000100000000000000000000000000000000000    0000000000000                   
60D20101001999999999           2608021532487 000000000100000000000000000000000000000000000    0000000000000                   
60D20101001999999999           2106021651318 000000000100000000000000000000000000000000000    0000000000000                   
60D20101001999999999           0605021008457 000000000100000000000000000000000000000000000    0000000000000                   
60D20101001999999999           2608021837544 000000000100000000000000000000000000000000000    0000000000000                   
60D20101001999999999           7896572014056 000000000100000000000000000000000000000000000    0000000000000                   
60D20101001999999999           7896572014056 000000000100000000000000000000000000000000000    0000000000000                   
60D20101001999999999           2608021837544 000000000100000000000000000000000000000000000    0000000000000                   
60D20101001999999999           0605021008457 000000000100000000000000000000000000000000000    0000000000000                   
60D20101001999999999           2106021651318 000000000100000000000000000000000000000000000    0000000000000                   
60D20101001999999999           2106021651318 000000000100000000000000000000000000000000000    0000000000000                   
60D20101001999999999           2106021651318 000000000100000000000000000000000000000000000    0000000000000                   
60D20101001999999999           2106021651318 000000000100000000000000000000000000000000000    0000000000000                   
60D20101001999999999           2106021651318 000000000100000000000000000000000000000000000    0000000000000                   
60D20101001999999999           2106021651318 000000000100000000000000000000000000000000000    0000000000000                   
60D20101001999999999           2106021651318 000000000100000000000000000000000000000000000    0000000000000                   
60D20101001999999999           2106021651318 000000000100000000000000000000000000000000000    0000000000000                   
60D20101001999999999           2106021651318 000000000100000000000000000000000000000000000    0000000000000                   
60D20101001999999999           2106021651318 000000000100000000000000000000000000000000000    0000000000000                   
60D20101001999999999           2106021651318 000000000100000000000000000000000000000000000    0000000000000                   
60D20101001999999999           2106021651318 000000000100000000000000000000000000000000000    0000000000000                   
60D20101001999999999           2106021651318 000000000100000000000000000000000000000000000    0000000000000                   
60D20101001999999999           2106021651318 000000000100000000000000000000000000000000000    0000000000000                   
60D20101001999999999           2106021651318 000000000100000000000000000000000000000000000    0000000000000                   
60D20101001999999999           3011010827133 000000000100000000000000000000000000000000000    0000000000000                   
60D20101001999999999           3011010827133 000000000100000000000000000000000000000000000    0000000000000                   
60D20101001999999999           3011010827133 000000000100000000000000000000000000000000000    0000000000000                   
60D20101001999999999           3011010827133 000000000100000000000000000000000000000000000    0000000000000                   
60D20101001999999999           3011010827133 000000000100000000000000000000000000000000000    0000000000000                   
60D20101001999999999           3011010827133 000000000100000000000000000000000000000000000    0000000000000                   
60D20101001999999999           0312011604499 000000000100000000000000000000000000000000000    0000000000000                   
60D20101001999999999           0312011604499 000000000100000000000000000000000000000000000    0000000000000                   
60D20101001999999999           0312011604499 000000000100000000000000000000000000000000000    0000000000000                   
60D20101001999999999           0312011604499 000000000100000000000000000000000000000000000    0000000000000                   
60D20101001999999999           0001170000005 000000000100000000000000000000000000000000000    0000000000000                   
60D20101001999999999           0001180000002 000000000100000000000000000000000000000000000    0000000000000                   
60D20101001999999999           0001180000002 000000000100000000000000000000000000000000000    0000000000000                   
60D20101001999999999           0001190000009 000000000100000000000000000000000000000000000    0000000000000                   
60D20101001999999999           0001190000009 000000000100000000000000000000000000000000000    0000000000000                   
60D20101001999999999           0001190000009 000000000100000000000000000000000000000000000    0000000000000                   
60D20101001999999999           0001190000009 000000000100000000000000000000000000000000000    0000000000000                   
60D20101001999999999           0407011150500 000000001000000000000000000000000000000000000    0000000000000                   
60D20101001999999999           0507021132142 000000000100000000000000000000000000000000000    0000000000000                   
60D20101001999999999           0407011150500 000000000100000000000000000000000000000000000    0000000000000                   
60D20101001999999999           1603041234428 000000000100000000000000000000000000000000000    0000000000000                   
60D20101001999999999           1603041234428 000000000100000000000000000000000000000000000    0000000000000                   
60D20101001999999999           0507021132142 000000000100000000000000000000000000000000000    0000000000000                   
60D20101001999999999           0507021132142 000000000100000000000000000000000000000000000    0000000000000                   
60D20101001999999999           0507021132142 000000000100000000000000000000000000000000000    0000000000000                   
60D20101001999999999           2106021651318 000000000100000000000000000000000000000000000    0000000000000                   
60D20101001999999999           2509021501148 000000000100000000000000000000000000000000000    0000000000000                   
60D20101001999999999           2509021501148 000000000100000000000000000000000000000000000    0000000000000                   
60D20101001999999999           2608021532487 000000000100000000000000000000000000000000000    0000000000000                   
60D20101001999999999           2608021532487 000000000100000000000000000000000000000000000    0000000000000                   
60D20101001999999999           2106021651318 000000000100000000000000000000000000000000000    0000000000000                   
60D20101001999999999           2106021651318 000000000100000000000000000000000000000000000    0000000000000                   
60D20101001999999999           2106021651318 000000000100000000000000000000000000000000000    0000000000000                   
60D20101001999999999           2106021651318 000000000100000000000000000000000000000000000    0000000000000                   
60D20101001999999999           2106021651318 000000000100000000000000000000000000000000000    0000000000000                   
60D20101001999999999           2106021651318 000000000100000000000000000000000000000000000    0000000000000                   
60D20101001999999999           2106021651318 000000000100000000000000000000000000000000000    0000000000000                   
60D20101001999999999           2106021651318 000000000100000000000000000000000000000000000    0000000000000                   
60D20101001999999999           2106021651318 000000000100000000000000000000000000000000000    0000000000000                   
60D20101001999999999           2106021651318 000000000100000000000000000000000000000000000    0000000000000                   
60D20101001999999999           2106021651318 000000000100000000000000000000000000000000000    0000000000000                   
60D20101001999999999           2106021651318 000000000100000000000000000000000000000000000    0000000000000                   
60D20101001999999999           2509021501148 000000000100000000000000000000000000000000000    0000000000000                   
60D20101001999999999           2509021501148 000000000100000000000000000000000000000000000    0000000000000                   
60D20101001999999999           2509021501148 000000000100000000000000000000000000000000000    0000000000000                   
60D20101001999999999           2509021501148 000000000100000000000000000000000000000000000    0000000000000                   
60D20101001999999999           2509021501148 000000000100000000000000000000000000000000000    0000000000000                   
60D20101001999999999           2509021501148 000000000100000000000000000000000000000000000    0000000000000                   
60D20101001999999999           2509021501148 000000000100000000000000000000000000000000000    0000000000000                   
60D20101001999999999           2509021501148 000000000100000000000000000000000000000000000    0000000000000                   
60D20101001999999999           2509021501148 000000000100000000000000000000000000000000000    0000000000000                   
60D20101001999999999           2509021501148 000000000100000000000000000000000000000000000    0000000000000                   
60D20101001999999999           2509021501148 000000000100000000000000000000000000000000000    0000000000000                   
60D20101001999999999           2509021501148 000000000100000000000000000000000000000000000    0000000000000                   
60D20101001999999999           2509021501148 000000000100000000000000000000000000000000000    0000000000000                   
60D20101001999999999           2509021501148 000000000100000000000000000000000000000000000    0000000000000                   
60D20101001999999999           2509021501148 000000000100000000000000000000000000000000000    0000000000000                   
60D20101001999999999           2509021501148 000000000100000000000000000000000000000000000    0000000000000                   
60D20101001999999999           2509021501148 000000000100000000000000000000000000000000000    0000000000000                   
60D20101001999999999           2509021501148 000000000100000000000000000000000000000000000    0000000000000                   
60D20101001999999999           1502021849471 000000000100000000000000000000000000000000000    0000000000000                   
60D20101001999999999           2509021501148 000000000100000000000000000000000000000000000    0000000000000                   
60D20101001999999999           2608021532487 000000000100000000000000000000000000000000000    0000000000000                   
60D20101001999999999           2106021651318 000000000100000000000000000000000000000000000    0000000000000                   
60D20101001999999999           0605021008457 000000000100000000000000000000000000000000000    0000000000000                   
60D20101001999999999           0605021008457 000000000100000000000000000000000000000000000    0000000000000                   
60D20101001999999999           2106021651318 000000000100000000000000000000000000000000000    0000000000000                   
60D20101001999999999           2608021532487 000000000100000000000000000000000000000000000    0000000000000                   
60D20101001999999999           2509021501148 000000000100000000000000000000000000000000000    0000000000000                   
60D20101001999999999           2509021501148 000000000100000000000000000000000000000000000    0000000000000                   
60D20101001999999999           0507021132142 000000000100000000000000000000000000000000000    0000000000000                   
60D20101001999999999           1603041234428 000000000100000000000000000000000000000000000    0000000000000                   
60D20101001999999999           1603041234428 000000000100000000000000000000000000000000000    0000000000000                   
60D20101001999999999           0507021132142 000000000100000000000000000000000000000000000    0000000000000                   
60D20101001999999999           2509021501148 000000000100000000000000000000000000000000000    0000000000000                   
60D20101001999999999           1603041234428 000000000100000000000000000000000000000000000    0000000000000                   
60D20101001999999999           1603041234428 000000000100000000000000000000000000000000000    0000000000000                   
60D20101001999999999           1603041234428 000000000100000000000000000000000000000000000    0000000000000                   
60D20101001999999999           1603041234428 000000000100000000000000000000000000000000000    0000000000000                   
60D20101001999999999           1603041234428 000000000100000000000000000000000000000000000    0000000000000                   
60D20101001999999999           1603041234428 000000000100000000000000000000000000000000000    0000000000000                   
60D20101001999999999           1603041234428 000000000100000000000000000000000000000000000    0000000000000                   
60D20101001999999999           1603041234428 000000000100000000000000000000000000000000000    0000000000000                   
60D20101001999999999           1603041234428 000000000100000000000000000000000000000000000    0000000000000                   
60D20101001999999999           1603041234428 000000000100000000000000000000000000000000000    0000000000000                   
60D20101001999999999           1603041234428 000000000100000000000000000000000000000000000    0000000000000                   
60D20101001999999999           1603041234428 000000000100000000000000000000000000000000000    0000000000000                   
60D20101001999999999           1603041234428 000000000100000000000000000000000000000000000    0000000000000                   
60D20101001999999999           2106021651318 000000000100000000000000000000000000000000000    0000000000000                   
60D20101001999999999           2106021651318 000000000100000000000000000000000000000000000    0000000000000                   
60D20101001999999999           2106021651318 000000000100000000000000000000000000000000000    0000000000000                   
60D20101001999999999           2106021651318 000000000100000000000000000000000000000000000    0000000000000                   
60D20101001999999999           2106021651318 000000000100000000000000000000000000000000000    0000000000000                   
60D20101001999999999           2106021651318 000000000100000000000000000000000000000000000    0000000000000                   
60D20101001999999999           2106021651318 000000000100000000000000000000000000000000000    0000000000000                   
60D20101001999999999           2106021651318 000000000100000000000000000000000000000000000    0000000000000                   
60D20101001999999999           2106021651318 000000000100000000000000000000000000000000000    0000000000000                   
60D20101001999999999           2106021651318 000000000100000000000000000000000000000000000    0000000000000                   
60D20101001999999999           2106021651318 000000000100000000000000000000000000000000000    0000000000000                   
60D20101001999999999           2106021651318 000000000100000000000000000000000000000000000    0000000000000                   
60D20101001999999999           2106021651318 000000000100000000000000000000000000000000000    0000000000000                   
60D20101001999999999           2106021651318 000000000100000000000000000000000000000000000    0000000000000                   
60D20101001999999999           2106021651318 000000000100000000000000000000000000000000000    0000000000000                   
60D20101001999999999           2106021651318 000000000100000000000000000000000000000000000    0000000000000                   
60D20101001999999999           2106021651318 000000000100000000000000000000000000000000000    0000000000000                   
60D20101001999999999           2106021651318 000000000100000000000000000000000000000000000    0000000000000                   
60D20101001999999999           2106021651318 000000000100000000000000000000000000000000000    0000000000000                   
60D20101001999999999           2106021651318 000000000100000000000000000000000000000000000    0000000000000                   
60D20101001999999999           2106021651318 000000000100000000000000000000000000000000000    0000000000000                   
60D20101001999999999           0001190000009 000000000100000000000000000000000000000000000    0000000000000                   
60D20101001999999999           0001190000009 000000000100000000000000000000000000000000000    0000000000000                   
60D20101001999999999           0001190000009 000000000100000000000000000000000000000000000    0000000000000                   
60D20101001999999999           0001190000009 000000000100000000000000000000000000000000000    0000000000000                   
60D20101001999999999           0001190000009 000000008000000000000000000000000000000000000    0000000000000                   
60D20101001999999999           0001190000009 000000000100000000000000000000000000000000000    0000000000000                   
60D20101001999999999           0407011150500 000000010000000000000000000000000000000000000    0000000000000                   
60D20101001999999999           3011010827133 000000001000000000000000000000000000000000000    0000000000000                   
60D20101001999999999           3011010827133 000000001000000000000000000000000000000000000    0000000000000                   
60D20101001999999999           0312011604499 000000001000000000000000000000000000000000000    0000000000000                   
60D20101001999999999           3011010827133 000000001000000000000000000000000000000000000    0000000000000                   
60D20101001999999999           0312011604499 000000001000000000000000000000000000000000000    0000000000000                   
60D20101001999999999           3011010827133 000000001000000000000000000000000000000000000    0000000000000                   
60D20101001999999999           0312011604499 000000001000000000000000000000000000000000000    0000000000000                   
60D20101001999999999           3011010827133 000000001000000000000000000000000000000000000    0000000000000                   
60D20101001999999999           0312011604499 000000001000000000000000000000000000000000000    0000000000000                   
60D20101001999999999           3011010827133 000000000100000000000000000000000000000000000    0000000000000                   
60D20101001999999999           3011010827133 000000000100000000000000000000000000000000000    0000000000000                   
60D20101001999999999           3011010827133 000000001000000000000000000000000000000000000    0000000000000                   
60D20101001999999999           0312011604499 000000001000000000000000000000000000000000000    0000000000000                   
60D20101001999999999           3011010827133 000000001000000000000000000000000000000000000    0000000000000                   
60D20101001999999999           0312011604499 000000001000000000000000000000000000000000000    0000000000000                   
60D20101001999999999           3011010827133 000000001000000000000000000000000000000000000    0000000000000                   
60D20101001999999999           0312011604499 000000001000000000000000000000000000000000000    0000000000000                   
60D20101001999999999           3011010827133 000000001000000000000000000000000000000000000    0000000000000                   
60D20101001999999999           0312011604499 000000001000000000000000000000000000000000000    0000000000000                   
60D20101001999999999           3011010827133 000000001000000000000000000000000000000000000    0000000000000                   
60D20101001999999999           0312011604499 000000001000000000000000000000000000000000000    0000000000000                   
60D20101001999999999           3011010827133 000000001000000000000000000000000000000000000    0000000000000                   
60D20101001999999999           0312011604499 000000001000000000000000000000000000000000000    0000000000000                   
60D20101001999999999           0001170000005 000000001000000000000000000000000000000000000    0000000000000                   
60D20101001999999999           0001180000002 000000001000000000000000000000000000000000000    0000000000000                   
60D20101001999999999           0001170000005 000000001000000000000000000000000000000000000    0000000000000                   
60D20101001999999999           0001180000002 000000001000000000000000000000000000000000000    0000000000000                   
60D20101001999999999           0407011150500 000000000100000000000000000000000000000000000    0000000000000                   
60D20101001999999999           0407011150500 000000000100000000000000000000000000000000000    0000000000000                   
60D20101001999999999           0407011150500 000000000100000000000000000000000000000000000    0000000000000                   
60D20101001999999999           0407011150500 000000000100000000000000000000000000000000000    0000000000000                   
60D20101001999999999           0407011150500 000000000100000000000000000000000000000000000    0000000000000                   
60D20101001999999999           0407011150500 000000000100000000000000000000000000000000000    0000000000000                   
60D20101001999999999           0407011150500 000000000100000000000000000000000000000000000    0000000000000                   
60D20101001999999999           0407011150500 000000000100000000000000000000000000000000000    0000000000000                   
60D20101001999999999           0407011150500 000000000100000000000000000000000000000000000    0000000000000                   
60D20101001999999999           1603041234428 000000000100000000000000000000000000000000000    0000000000000                   
60D20101001999999999           0001180000002 000000000100000000000000000000000000000000000    0000000000000                   
60D20101001999999999           0001234567898 000000000100000000000000000000000000000000000    0000000000000                   
60D20101001999999999           0001234567898 000000000100000000000000000000000000000000000    0000000000000                   
60D20101001999999999           0001234567898 000000000100000000000000000000000000000000000    0000000000000                   
60D20101001999999999           0001170000005 000000001000000000000000000000000000000000000    0000000000000                   
60D20101001999999999           0001180000002 000000001000000000000000000000000000000000000    0000000000000                   
60D20101001999999999           0001190000009 000000001000000000000000000000000000000000000    0000000000000                   
60D20101001999999999           0001234567898 000000001000000000000000000000000000000000000    0000000000000                   
60D20101001999999999           0001170000005 000000001000000000000000000000000000000000000    0000000000000                   
60D20101001999999999           0001180000002 000000001000000000000000000000000000000000000    0000000000000                   
60D20101001999999999           0001170000005 000000001000000000000000000000000000000000000    0000000000000                   
60D20101001999999999           0001180000002 000000001000000000000000000000000000000000000    0000000000000                   
60D20101001999999999           0001170000005 000000001000000000000000000000000000000000000    0000000000000                   
60D20101001999999999           0001180000002 000000001000000000000000000000000000000000000    0000000000000                   
60D20101001999999999           0001190000009 000000001000000000000000000000000000000000000    0000000000000                   
60D20101001999999999           0001234567898 000000001000000000000000000000000000000000000    0000000000000                   
60D20101001999999999           0001170000005 000000001000000000000000000000000000000000000    0000000000000                   
60D20101001999999999           0001180000002 000000001000000000000000000000000000000000000    0000000000000                   
60D20101001999999999           0001170000005 000000001000000000000000000000000000000000000    0000000000000                   
60D20101001999999999           0001180000002 000000001000000000000000000000000000000000000    0000000000000                   
60D20101001999999999           0001170000005 000000001000000000000000000000000000000000000    0000000000000                   
60D20101001999999999           0001180000002 000000001000000000000000000000000000000000000    0000000000000                   
60D20101001999999999           0001190000009 000000001000000000000000000000000000000000000    0000000000000                   
60D20101001999999999           0001234567898 000000001000000000000000000000000000000000000    0000000000000                   
60D20101001999999999           0001170000005 000000001000000000000000000000000000000000000    0000000000000                   
60D20101001999999999           0001180000002 000000001000000000000000000000000000000000000    0000000000000                   
60D20101001999999999           0001170000005 000000001000000000000000000000000000000000000    0000000000000                   
60D20101001999999999           0001180000002 000000001000000000000000000000000000000000000    0000000000000                   
60D20101001999999999           0001170000005 000000001000000000000000000000000000000000000    0000000000000                   
60D20101001999999999           0001180000002 000000001000000000000000000000000000000000000    0000000000000                   
60D20101001999999999           0001170000005 000000001000000000000000000000000000000000000    0000000000000                   
60D20101001999999999           0001180000002 000000001000000000000000000000000000000000000    0000000000000                   
60D20101001999999999           0001170000005 000000001000000000000000000000000000000000000    0000000000000                   
60D20101001999999999           0001180000002 000000001000000000000000000000000000000000000    0000000000000                   
60D20101001999999999           0001170000005 000000001000000000000000000000000000000000000    0000000000000                   
60D20101001999999999           0001180000002 000000001000000000000000000000000000000000000    0000000000000                   
60D20101001999999999           0001170000005 000000001000000000000000000000000000000000000    0000000000000                   
60D20101001999999999           0001180000002 000000001000000000000000000000000000000000000    0000000000000                   
60D20101001999999999           0001170000005 000000001000000000000000000000000000000000000    0000000000000                   
60D20101001999999999           0001180000002 000000001000000000000000000000000000000000000    0000000000000                   
60D20101001999999999           0001170000005 000000001000000000000000000000000000000000000    0000000000000                   
60D20101001999999999           0001180000002 000000001000000000000000000000000000000000000    0000000000000                   
60D20101001999999999           0001170000005 000000001000000000000000000000000000000000000    0000000000000                   
60D20101001999999999           0001180000002 000000001000000000000000000000000000000000000    0000000000000                   
60D20101001999999999           3011010827133 000000001000000000000000000000000000000000000    0000000000000                   
60D20101001999999999           0312011604499 000000001000000000000000000000000000000000000    0000000000000                   
60D20101001999999999           3011010827133 000000001000000000000000000000000000000000000    0000000000000                   
60D20101001999999999           0312011604499 000000001000000000000000000000000000000000000    0000000000000                   
60D20101001999999999           3011010827133 000000001000000000000000000000000000000000000    0000000000000                   
60D20101001999999999           0312011604499 000000001000000000000000000000000000000000000    0000000000000                   
60D20101001999999999           3011010827133 000000001000000000000000000000000000000000000    0000000000000                   
60D20101001999999999           0312011604499 000000001000000000000000000000000000000000000    0000000000000                   
60D20101001999999999           0001170000005 000000001000000000000000000000000000000000000    0000000000000                   
60D20101001999999999           0001180000002 000000001000000000000000000000000000000000000    0000000000000                   
60D20101001999999999           0001170000005 000000001000000000000000000000000000000000000    0000000000000                   
60D20101001999999999           0001180000002 000000001000000000000000000000000000000000000    0000000000000                   
60D20101001999999999           3011010827133 000000001000000000000000000000000000000000000    0000000000000                   
60D20101001999999999           0312011604499 000000001000000000000000000000000000000000000    0000000000000                   
60D20101001999999999           3011010827133 000000001000000000000000000000000000000000000    0000000000000                   
60D20101001999999999           0312011604499 000000001000000000000000000000000000000000000    0000000000000                   
60D20101001999999999           0001170000005 000000001000000000000000000000000000000000000    0000000000000                   
60D20101001999999999           0001180000002 000000001000000000000000000000000000000000000    0000000000000                   
60D20101001999999999           0001170000005 000000001000000000000000000000000000000000000    0000000000000                   
60D20101001999999999           0001180000002 000000001000000000000000000000000000000000000    0000000000000                   
60D20101001999999999           0001170000005 000000001000000000000000000000000000000000000    0000000000000                   
60D20101001999999999           0001180000002 000000001000000000000000000000000000000000000    0000000000000                   
60D20101001999999999           0001170000005 000000001000000000000000000000000000000000000    0000000000000                   
60D20101001999999999           0001180000002 000000001000000000000000000000000000000000000    0000000000000                   
60D20101001999999999           0001170000005 000000001000000000000000000000000000000000000    0000000000000                   
60D20101001999999999           0001180000002 000000001000000000000000000000000000000000000    0000000000000                   
60D20101001999999999           3011010827133 000000001000000000000000000000000000000000000    0000000000000                   
60D20101001999999999           0312011604499 000000001000000000000000000000000000000000000    0000000000000                   
60D20101001999999999           0001170000005 000000001000000000000000000000000000000000000    0000000000000                   
60D20101001999999999           0001180000002 000000001000000000000000000000000000000000000    0000000000000                   
60D20101001999999999           0001170000005 000000001000000000000000000000000000000000000    0000000000000                   
60D20101001999999999           0001180000002 000000001000000000000000000000000000000000000    0000000000000                   
60D20101001999999999           0001190000009 000000001000000000000000000000000000000000000    0000000000000                   
60D20101001999999999           0001234567898 000000001000000000000000000000000000000000000    0000000000000                   
60D20101001999999999           0001190000009 000000000100000000000000000000000000000000000    0000000000000                   
60D20101001999999999           0001234567898 000000000100000000000000000000000000000000000    0000000000000                   
60D20101001999999999           0001234567898 000000000100000000000000000000000000000000000    0000000000000                   
60D20101001999999999           0407011150500 000000000400000000000000000000000000000000000    0000000000000                   
60D20101001999999999           0407011150500 000000000100000000000000000000000000000000000000 0000000000000                   
60D20101001999999999           0407011150500 000000000100000000000000000000000000000000000000 0000000000000                   
60D20101001999999999           0407011150500 000000000100000000000000000000000000000000000000 0000000000000                   
60D20101001999999999           1603041234428 000000000200000000000000000000000000000000000000 0000000000000                   
60D20101001999999999           1603041234428 000000000100000000000000000000000000000000000000 0000000000000                   
60D20101001999999999           0507021132142 000000000200000000000000000000000000000000000000 0000000000000                   
60D20101001999999999           0507021132142 000000000100000000000000000000000000000000000000 0000000000000                   
60D20101001999999999           0507021132142 000000000100000000000000000000000000000000000000 0000000000000                   
60D20101001999999999           0507021132142 000000000100000000000000000000000000000000000000 0000000000000                   
60D20101001999999999           0507021132142 000000000100000000000000000000000000000000000000 0000000000000                   
60D20101001999999999           0412031129269 000000000100000000000000000000000000000000000000 0000000000000                   
60D20101001999999999           0507021132142 000000000100000000000000000000000000000000000000 0000000000000                   
60D20101001999999999           0507021132142 000000000100000000000000000000000000000000000000 0000000000000                   
60D20101001999999999           0507021132142 000000000100000000000000000000000000000000000000 0000000000000                   
60D20101001999999999           3008030906467 000000000100000000000000000000000000000000000000 0000000000000                   
60D20101001999999999           6554564846450 000000000100000000000000000000000000000000000000 0000000000000                   
60D20101001999999999           3011010827133 000000001000000000000000000000000000000000000000 0000000000000                   
60D20101001999999999           0312011604499 000000001000000000000000000000000000000000000000 0000000000000                   
60D20101001999999999           0001170000005 000000001000000000000000000000000000000000000000 0000000000000                   
60D20101001999999999           0001180000002 000000001000000000000000000000000000000000000000 0000000000000                   
60D20101001999999999           3011010827133 000000001000000000000000000000000000000000000000 0000000000000                   
60D20101001999999999           0312011604499 000000001000000000000000000000000000000000000000 0000000000000                   
60D20101001999999999           0001170000005 000000001000000000000000000000000000000000000000 0000000000000                   
60D20101001999999999           0001180000002 000000001000000000000000000000000000000000000000 0000000000000                   
60D20101001999999999           0001170000005 000000001000000000000000000000000000000000000000 0000000000000                   
60D20101001999999999           0001180000002 000000001000000000000000000000000000000000000000 0000000000000                   
60D20101001999999999           0001190000009 000000001000000000000000000000000000000000000000 0000000000000                   
60D20101001999999999           0001234567898 000000001000000000000000000000000000000000000000 0000000000000                   
60D20101001999999999           0507021132142 000000000100000000000000000000000000000000000000 0000000000000                   
60D20101001999999999           1603041234428 000000000100000000000000000000000000000000000000 0000000000000                   
60D20101001999999999           1603041234428 000000000100000000000000000000000000000000000000 0000000000000                   
60D20101001999999999           1603041234428 000000000100000000000000000000000000000000000000 0000000000000                   
60D20101001999999999           1603041234428 000000000100000000000000000000000000000000000000 0000000000000                   
60D20101001999999999           1603041234428 000000000100000000000000000000000000000000000000 0000000000000                   
60D20101001999999999           1603041234428 000000000100000000000000000000000000000000000000 0000000000000                   
60D20101001999999999           1603041234428 000000000100000000000000000000000000000000000000 0000000000000                   
60D20101001999999999           1603041234428 000000000100000000000000000000000000000000000000 0000000000000                   
60D20101001999999999           1603041234428 000000000100000000000000000000000000000000000000 0000000000000                   
60D20101001999999999           0507021132142 000000000100000000000000000000000000000000000000 0000000000000                   
60D20101001999999999           2509021501148 000000000100000000000000000000000000000000000000 0000000000000                   
60D20101001999999999           2401041227476 000000000100000000000000000000000000000000000000 0000000000000                   
60D20101001999999999           2504031743397 000000000100000000000000000000000000000000000000 0000000000000                   
60D20101001999999999           2509021501148 000000000100000000000000000000000000000000000000 0000000000000                   
60D20101001999999999           2509021501148 000000000100000000000000000000000000000000000000 0000000000000                   
60D20101001999999999           2608021532487 000000000300000000000000000000000000000000000000 0000000000000                   
60D20101001999999999           2106021651318 000000000100000000000000000000000000000000000000 0000000000000                   
60D20101001999999999           1603041234428 000000000100000000000000000000000000000000000000 0000000000000                   
60D20101001999999999           2401041227476 000000000100000000000000000000000000000000000000 0000000000000                   
60D20101001999999999           2504031743397 000000000100000000000000000000000000000000000000 0000000000000                   
60D20101001999999999           1603041234428 000000000100000000000000000000000000000000000000 0000000000000                   
60D20101001999999999           1603041234428 000000000100000000000000000000000000000000000000 0000000000000                   
60D20101001999999999           1603041234428 000000000100000000000000000000000000000000000000 0000000000000                   
60D20101001999999999           1603041234428 000000000100000000000000000000000000000000000000 0000000000000                   
60D20101001999999999           3011010827133 000000001000000000000000000000000000000000000000 0000000000000                   
60D20101001999999999           0312011604499 000000001000000000000000000000000000000000000000 0000000000000                   
60D20101001999999999           0001170000005 000000001000000000000000000000000000000000000000 0000000000000                   
60D20101001999999999           0001180000002 000000001000000000000000000000000000000000000000 0000000000000                   
60D20101001999999999           3011010827133 000000001000000000000000000000000000000000000000 0000000000000                   
60D20101001999999999           0312011604499 000000001000000000000000000000000000000000000000 0000000000000                   
60D20101001999999999           0001170000005 000000001000000000000000000000000000000000000000 0000000000000                   
60D20101001999999999           0001180000002 000000001000000000000000000000000000000000000000 0000000000000                   
60D20101001999999999           0001170000005 000000001000000000000000000000000000000000000000 0000000000000                   
60D20101001999999999           0001180000002 000000001000000000000000000000000000000000000000 0000000000000                   
60D20101001999999999           0001190000009 000000001000000000000000000000000000000000000000 0000000000000                   
60D20101001999999999           0001234567898 000000001000000000000000000000000000000000000000 0000000000000                   
60D20101001999999999           1603041234428 000000000100000000000000000000000000000000000000 0000000000000                   
60D20101001999999999           1603041234428 000000000100000000000000000000000000000000000000 0000000000000                   
60D20101001999999999           1603041234428 000000000100000000000000000000000000000000000000 0000000000000                   
60D20101001999999999           1603041234428 000000000100000000000000000000000000000000000000 0000000000000                   
60D20101001999999999           1603041234428 000000000100000000000000000000000000000000000000 0000000000000                   
60D20101001999999999           1603041234428 000000000100000000000000000000000000000000000000 0000000000000                   
60D20101001999999999           1603041234428 000000000100000000000000000000000000000000000000 0000000000000                   
60D20101001999999999           1603041234428 000000000100000000000000000000000000000000000000 0000000000000                   
60D20101001999999999           1603041234428 000000000100000000000000000000000000000000000000 0000000000000                   
60D20101001999999999           1603041234428 000000000100000000000000000000000000000000000000 0000000000000                   
60D20101001999999999           1603041234428 000000000100000000000000000000000000000000000000 0000000000000                   
60D20101001999999999           1603041234428 000000000100000000000000000000000000000000000000 0000000000000                   
60D20101001999999999           1603041234428 000000000100000000000000000000000000000000000000 0000000000000                   
60D20101001999999999           1603041234428 000000000100000000000000000000000000000000000000 0000000000000                   
60D20101001999999999           1603041234428 000000000100000000000000000000000000000000000000 0000000000000                   
60D20101001999999999           1603041234428 000000000100000000000000000000000000000000000000 0000000000000                   
60D20101001999999999           1603041234428 000000000100000000000000000000000000000000000000 0000000000000                   
60D20101001999999999           1603041234428 000000000100000000000000000000000000000000000000 0000000000000                   
60D20101001999999999           1603041234428 000000000100000000000000000000000000000000000000 0000000000000                   
60D20101001999999999           1603041234428 000000000100000000000000000000000000000000000000 0000000000000                   
60D20101001999999999           1603041234428 000000000100000000000000000000000000000000000000 0000000000000                   
60D20101001999999999           0507021132142 000000000100000000000000000000000000000000000000 0000000000000                   
60D20101001999999999           2001041020383 000000000100000000000000000000000000000000000000 0000000000000                   
60D20101001999999999           3265656989872 000000000100000000000000000000000000000000000000 0000000000000                   
60D20101001999999999           0211001948462 000000000100000000000000000000000000000000000000 0000000000000                   
60D20101001999999999           0001170000005 000000001000000000000000000000000000000000000000 0000000000000                   
60D20101001999999999           0001180000002 000000001000000000000000000000000000000000000000 0000000000000                   
60D20101001999999999           0507021132142 000000000100000000000000000000000000000000000000 0000000000000                   
60D20101001999999999           0507021132142 000000000100000000000000000000000000000000000000 0000000000000                   
60D20101001999999999           2011000836474 000000000100000000000000000000000000000000000000 0000000000000                   
60D20101001999999999           2506021118291 000000000100000000000000000000000000000000000000 0000000000000                   
60D20101001999999999           0506011104268 000000000100000000000000000000000000000000000000 0000000000000                   
60D20101001999999999           1306021104352 000000000100000000000000000000000000000000000000 0000000000000                   
60D20101001999999999           0507021132142 000000000100000000000000000000000000000000000000 0000000000000                   
60D20101001999999999           0507021132142 000000000100000000000000000000000000000000000000 0000000000000                   
60D20101001999999999           0507021132142 000000000100000000000000000000000000000000000000 0000000000000                   
60D20101001999999999           0507021132142 000000000100000000000000000000000000000000000000 0000000000000                   
60D20101001999999999           0507021132142 000000000100000000000000000000000000000000000000 0000000000000                   
60D20101001999999999           0507021132142 000000000100000000000000000000000000000000000000 0000000000000                   
60D20101001999999999           0507021132142 000000000100000000000000000000000000000000000000 0000000000000                   
60D20101001999999999           0507021132142 000000000100000000000000000000000000000000000000 0000000000000                   
60D20101001999999999           0507021132142 000000000100000000000000000000000000000000000000 0000000000000                   
60D20101001999999999           0507021132142 000000000100000000000000000000000000000000000000 0000000000000                   
60D20101001999999999           2509021501148 000000000100000000000000000000000000000000000000 0000000000000                   
60D20101001999999999           3011010827133 000000000100000000000000000000000000000000000000 0000000000000                   
60D20101001999999999           0312011604499 000000000100000000000000000000000000000000000000 0000000000000                   
60D20101001999999999           0001170000005 000000000100000000000000000000000000000000000000 0000000000000                   
60D20101001999999999           0001180000002 000000000100000000000000000000000000000000000000 0000000000000                   
60D20101001999999999           0001190000009 000000000100000000000000000000000000000000000000 0000000000000                   
60D20101001999999999           0001190000009 000000000100000000000000000000000000000000000000 0000000000000                   
60D20101001999999999           0001190000009 000000000100000000000000000000000000000000000000 0000000000000                   
60D20101001999999999           0001190000009 000000000100000000000000000000000000000000000000 0000000000000                   
60D20101001999999999           0001190000009 000000000100000000000000000000000000000000000000 0000000000000                   
60D20101001999999999           0001190000009 000000000100000000000000000000000000000000000000 0000000000000                   
60D20101001999999999           0001190000009 000000000100000000000000000000000000000000000000 0000000000000                   
60D20101001999999999           0001190000009 000000000100000000000000000000000000000000000000 0000000000000                   
60D20101001999999999           0001234567898 000000000100000000000000000000000000000000000000 0000000000000                   
60D20101001999999999           0407011150500 000000000100000000000000000000000000000000000000 0000000000000                   
60D20101001999999999           0407011150500 000000000100000000000000000000000000000000000000 0000000000000                   
60D20101001999999999           1603041234428 000000000800000000000000000000000000000000000000 0000000000000                   
60D20101001999999999           1603041234428 000000000100000000000000000000000000000000000000 0000000000000                   
60D20101001999999999           3011010827133 000000000400000000000000000000000000000000000000 0000000000000                   
60D20101001999999999           0312011604499 000000000100000000000000000000000000000000000000 0000000000000                   
60D20101001999999999           0001170000005 000000000100000000000000000000000000000000000000 0000000000000                   
60D20101001999999999           0001170000005 000000000100000000000000000000000000000000000000 0000000000000                   
60D20101001999999999           0001190000009 000000000100000000000000000000000000000000000000 0000000000000                   
60D20101001999999999           0706031233041 000000000100000000000000000000000000000000000000 0000000000000                   
60D20101001999999999           1603041234428 000000000100000000000000000000000000000000000000 0000000000000                   
60D20101001999999999           1603041234428 000000000100000000000000000000000000000000000000 0000000000000                   
60D20101001999999999           1603041234428 000000000100000000000000000000000000000000000000 0000000000000                   
60D20101001999999999           0001234567898 000000000100000000000000000000000000000000000000 0000000000000                   
60D20101001999999999           0001234567898 000000000300000000000000000000000000000000000000 0000000000000                   
60D20101001999999999           0001234567898 000000000100000000000000000000000000000000000000 0000000000000                   
60D20101001999999999           1603041234428 000000000100000000000000000000000000000000000000 0000000000000                   
60D20101001999999999           1603041234428 000000000100000000000000000000000000000000000000 0000000000000                   
60D20101001999999999           2608021532487 000000000100000000000000000000000000000000000000 0000000000000                   
60D20101001999999999           2509021501148 000000000100000000000000000000000000000000000000 0000000000000                   
60D20101001999999999           0507021132142 000000000100000000000000000000000000000000000000 0000000000000                   
60D20101001999999999           3011010827133 000000000100000000000000000000000000000000000000 0000000000000                   
60D20101001999999999           3011010827133 000000000100000000000000000000000000000000000000 0000000000000                   
60D20101001999999999           0001180000002 000000000200000000000000000000000000000000000000 0000000000000                   
60D20101001999999999           0001234567898 000000000100000000000000000000000000000000000000 0000000000000                   
60D20101001999999999           0407011150500 000000000100000000000000000000000000000000000000 0000000000000                   
60D20101001999999999           0407011150500 000000000100000000000000000000000000000000000000 0000000000000                   
60D20101001999999999           0407011150500 000000000100000000000000000000000000000000000000 0000000000000                   
60D20101001999999999           1603041234428 000000000100000000000000000000000000000000000000 0000000000000                   
60D20101001999999999           0507021132142 000000000100000000000000000000000000000000000000 0000000000000                   
60D20101001999999999           2509021501148 000000000100000000000000000000000000000000000000 0000000000000                   
60D20101001999999999           2509021501148 000000000100000000000000000000000000000000000000 0000000000000                   
60D20101001999999999           2509021501148 000000000100000000000000000000000000000000000000 0000000000000                   
60D20101001999999999           2509021501148 000000000100000000000000000000000000000000000000 0000000000000                   
60D20101001999999999           2509021501148 000000000100000000000000000000000000000000000000 0000000000000                   
60D20101001999999999           2509021501148 000000000100000000000000000000000000000000000000 0000000000000                   
60D20101001999999999           2509021501148 000000000100000000000000000000000000000000000000 0000000000000                   
60D20101001999999999           2509021501148 000000000100000000000000000000000000000000000000 0000000000000                   
60D20101001999999999           2509021501148 000000000100000000000000000000000000000000000000 0000000000000                   
60D20101001999999999           2509021501148 000000000100000000000000000000000000000000000000 0000000000000                   
60D20101001999999999           2509021501148 000000000100000000000000000000000000000000000000 0000000000000                   
60D20101001999999999           2509021501148 000000000100000000000000000000000000000000000000 0000000000000                   
60D20101001999999999           2509021501148 000000000100000000000000000000000000000000000000 0000000000000                   
60D20101001999999999           2509021501148 000000000100000000000000000000000000000000000000 0000000000000                   
60D20101001999999999           2509021501148 000000000100000000000000000000000000000000000000 0000000000000                   
60D20101001999999999           2509021501148 000000000100000000000000000000000000000000000000 0000000000000                   
60D20101001999999999           2509021501148 000000000100000000000000000000000000000000000000 0000000000000                   
60D20101001999999999           2509021501148 000000000100000000000000000000000000000000000000 0000000000000                   
60D20101001999999999           2509021501148 000000000100000000000000000000000000000000000000 0000000000000                   
60D20101001999999999           2509021501148 000000000100000000000000000000000000000000000000 0000000000000                   
60D20101001999999999           2509021501148 000000000100000000000000000000000000000000000000 0000000000000                   
60D20101001999999999           2509021501148 000000000100000000000000000000000000000000000000 0000000000000                   
60D20101001999999999           2509021501148 000000000100000000000000000000000000000000000000 0000000000000                   
60D20101001999999999           2509021501148 000000000100000000000000000000000000000000000000 0000000000000                   
60D20101001999999999           2509021501148 000000000100000000000000000000000000000000000000 0000000000000                   
60D20101001999999999           2509021501148 000000000100000000000000000000000000000000000000 0000000000000                   
60D20101001999999999           2509021501148 000000000100000000000000000000000000000000000000 0000000000000                   
60D20101001999999999           2509021501148 000000000100000000000000000000000000000000000000 0000000000000                   
60D20101001999999999           2509021501148 000000000100000000000000000000000000000000000000 0000000000000                   
60D20101001999999999           2509021501148 000000000100000000000000000000000000000000000000 0000000000000                   
60D20101001999999999           2509021501148 000000000100000000000000000000000000000000000000 0000000000000                   
60D20101001999999999           2509021501148 000000000100000000000000000000000000000000000000 0000000000000                   
60D20101001999999999           2509021501148 000000000100000000000000000000000000000000000000 0000000000000                   
60D20101001999999999           2509021501148 000000000100000000000000000000000000000000000000 0000000000000                   
60D20101001999999999           2509021501148 000000000100000000000000000000000000000000000000 0000000000000                   
60D20101001999999999           2509021501148 000000000100000000000000000000000000000000000000 0000000000000                   
60D20101001999999999           2509021501148 000000000100000000000000000000000000000000000000 0000000000000                   
60D20101001999999999           2509021501148 000000000100000000000000000000000000000000000000 0000000000000                   
60D20101001999999999           2509021501148 000000000100000000000000000000000000000000000000 0000000000000                   
60D20101001999999999           2509021501148 000000000100000000000000000000000000000000000000 0000000000000                   
60D20101001999999999           2509021501148 000000000100000000000000000000000000000000000000 0000000000000                   
60D20101001999999999           2509021501148 000000000100000000000000000000000000000000000000 0000000000000                   
60D20101001999999999           2509021501148 000000000100000000000000000000000000000000000000 0000000000000                   
60D20101001999999999           2509021501148 000000000100000000000000000000000000000000000000 0000000000000                   
60D20101001999999999           2509021501148 000000000100000000000000000000000000000000000000 0000000000000                   
60D20101001999999999           2509021501148 000000000100000000000000000000000000000000000000 0000000000000                   
60D20101001999999999           2509021501148 000000000100000000000000000000000000000000000000 0000000000000                   
60D20101001999999999           2509021501148 000000000100000000000000000000000000000000000000 0000000000000                   
60D20101001999999999           2509021501148 000000000100000000000000000000000000000000000000 0000000000000                   
60D20101001999999999           2509021501148 000000000100000000000000000000000000000000000000 0000000000000                   
60D20101001999999999           2509021501148 000000000100000000000000000000000000000000000000 0000000000000                   
60D20101001999999999           2509021501148 000000000100000000000000000000000000000000000000 0000000000000                   
60D20101001999999999           2509021501148 000000000100000000000000000000000000000000000000 0000000000000                   
60D20101001999999999           2509021501148 000000000100000000000000000000000000000000000000 0000000000000                   
60D20101001999999999           2509021501148 000000000100000000000000000000000000000000000000 0000000000000                   
60D20101001999999999           2509021501148 000000000100000000000000000000000000000000000000 0000000000000                   
60D20101001999999999           2509021501148 000000000100000000000000000000000000000000000000 0000000000000                   
60D20101001999999999           2509021501148 000000000100000000000000000000000000000000000000 0000000000000                   
60D20101001999999999           2509021501148 000000000100000000000000000000000000000000000000 0000000000000                   
60D20101001999999999           2509021501148 000000000100000000000000000000000000000000000000 0000000000000                   
60D20101001999999999           2509021501148 000000000100000000000000000000000000000000000000 0000000000000                   
60D20101001999999999           2509021501148 000000000100000000000000000000000000000000000000 0000000000000                   
60D20101001999999999           2509021501148 000000000100000000000000000000000000000000000000 0000000000000                   
60D20101001999999999           2509021501148 000000000100000000000000000000000000000000000000 0000000000000                   
60D20101001999999999           2509021501148 000000000100000000000000000000000000000000000000 0000000000000                   
60D20101001999999999           2509021501148 000000000100000000000000000000000000000000000000 0000000000000                   
60D20101001999999999           2509021501148 000000000100000000000000000000000000000000000000 0000000000000                   
60D20101001999999999           2509021501148 000000000100000000000000000000000000000000000000 0000000000000                   
60D20101001999999999           2509021501148 000000000100000000000000000000000000000000000000 0000000000000                   
60D20101001999999999           2509021501148 000000000100000000000000000000000000000000000000 0000000000000                   
60D20101001999999999           2509021501148 000000000100000000000000000000000000000000000000 0000000000000                   
60D20101001999999999           2509021501148 000000000100000000000000000000000000000000000000 0000000000000                   
60D20101001999999999           2509021501148 000000000100000000000000000000000000000000000000 0000000000000                   
60D20101001999999999           2509021501148 000000000100000000000000000000000000000000000000 0000000000000                   
60D20101001999999999           2509021501148 000000000100000000000000000000000000000000000000 0000000000000                   
60D20101001999999999           2509021501148 000000000100000000000000000000000000000000000000 0000000000000                   
60D20101001999999999           2509021501148 000000000100000000000000000000000000000000000000 0000000000000                   
60D20101001999999999           2509021501148 000000000100000000000000000000000000000000000000 0000000000000                   
60D20101001999999999           2509021501148 000000000100000000000000000000000000000000000000 0000000000000                   
60D20101001999999999           2509021501148 000000000100000000000000000000000000000000000000 0000000000000                   
60D20101001999999999           2509021501148 000000000100000000000000000000000000000000000000 0000000000000                   
60D20101001999999999           2509021501148 000000000100000000000000000000000000000000000000 0000000000000                   
60D20101001999999999           2509021501148 000000000100000000000000000000000000000000000000 0000000000000                   
60D20101001999999999           2509021501148 000000000100000000000000000000000000000000000000 0000000000000                   
60D20101001999999999           2509021501148 000000000100000000000000000000000000000000000000 0000000000000                   
60D20101001999999999           2509021501148 000000000100000000000000000000000000000000000000 0000000000000                   
60D20101001999999999           2509021501148 000000000100000000000000000000000000000000000000 0000000000000                   
60D20101001999999999           2509021501148 000000000100000000000000000000000000000000000000 0000000000000                   
60D20101001999999999           2509021501148 000000000100000000000000000000000000000000000000 0000000000000                   
60D20101001999999999           2509021501148 000000000100000000000000000000000000000000000000 0000000000000                   
60D20101001999999999           2509021501148 000000000100000000000000000000000000000000000000 0000000000000                   
60D20101001999999999           2509021501148 000000000100000000000000000000000000000000000000 0000000000000                   
60D20101001999999999           2509021501148 000000000100000000000000000000000000000000000000 0000000000000                   
60D20101001999999999           2509021501148 000000000100000000000000000000000000000000000000 0000000000000                   
60D20101001999999999           2509021501148 000000000100000000000000000000000000000000000000 0000000000000                   
60D20101001999999999           3011010827133 000000000100000000000000000000000000000000000000 0000000000000                   
60D20101001999999999           0312011604499 000000000100000000000000000000000000000000000000 0000000000000                   
60D20101001999999999           0312011604499 000000000100000000000000000000000000000000000000 0000000000000                   
60D20101001999999999           0312011604499 000000000100000000000000000000000000000000000000 0000000000000                   
60D20101001999999999           0312011604499 000000000100000000000000000000000000000000000000 0000000000000                   
60D20101001999999999           0312011604499 000000000100000000000000000000000000000000000000 0000000000000                   
60D20101001999999999           0312011604499 000000000100000000000000000000000000000000000000 0000000000000                   
60D20101001999999999           0312011604499 000000000100000000000000000000000000000000000000 0000000000000                   
60D20101001999999999           0312011604499 000000000100000000000000000000000000000000000000 0000000000000                   
60D20101001999999999           0312011604499 000000000100000000000000000000000000000000000000 0000000000000                   
60D20101001999999999           0312011604499 000000000100000000000000000000000000000000000000 0000000000000                   
60D20101001999999999           0312011604499 000000000100000000000000000000000000000000000000 0000000000000                   
60D20101001999999999           0312011604499 000000000100000000000000000000000000000000000000 0000000000000                   
60D20101001999999999           0001170000005 000000000100000000000000000000000000000000000000 0000000000000                   
60D20101001999999999           0001180000002 000000000100000000000000000000000000000000000000 0000000000000                   
60D20101001999999999           0001190000009 000000000100000000000000000000000000000000000000 0000000000000                   
60D20101001999999999           0001234567898 000000000100000000000000000000000000000000000000 0000000000000                   
60D20101001999999999           0407011150500 000000000100000000000000000000000000000000000000 0000000000000                   
60D20101001999999999           1603041234428 000000000100000000000000000000000000000000000000 0000000000000                   
60D20101001999999999           0507021132142 000000000100000000000000000000000000000000000000 0000000000000                   
60D20101001999999999           2509021501148 000000000100000000000000000000000000000000000000 0000000000000                   
60D20101001999999999           2509021501148 000000000100000000000000000000000000000000000000 0000000000000                   
60D20101001999999999           0001170000005 000000000100000000000000000000000000000000000000 0000000000000                   
